{
  "contractName": "Address",
  "abi": [
    {
      "constant": true,
      "inputs": [
        {
          "name": "",
          "type": "address"
        }
      ],
      "name": "userDb",
      "outputs": [
        {
          "name": "name",
          "type": "bytes32"
        },
        {
          "name": "userName",
          "type": "bytes32"
        },
        {
          "name": "userType",
          "type": "bytes32"
        },
        {
          "name": "blockAddress",
          "type": "address"
        },
        {
          "name": "password",
          "type": "bytes32"
        },
        {
          "name": "mobile",
          "type": "bytes32"
        },
        {
          "name": "flag",
          "type": "bool"
        }
      ],
      "payable": false,
      "stateMutability": "view",
      "type": "function"
    }
  ],
  "bytecode": "0x608060405234801561001057600080fd5b50610265806100206000396000f3fe608060405260043610610041576000357c0100000000000000000000000000000000000000000000000000000000900463ffffffff168063153245a714610046575b600080fd5b34801561005257600080fd5b5061006d6004803603610068919081019061010c565b610089565b6040516100809796959493929190610162565b60405180910390f35b60006020528060005260406000206000915090508060000154908060010154908060020154908060030160009054906101000a900473ffffffffffffffffffffffffffffffffffffffff16908060040154908060050154908060060160009054906101000a900460ff16905087565b60006101048235610219565b905092915050565b60006020828403121561011e57600080fd5b600061012c848285016100f8565b91505092915050565b61013e816101d1565b82525050565b61014d816101e3565b82525050565b61015c816101ef565b82525050565b600060e082019050610177600083018a610153565b6101846020830189610153565b6101916040830188610153565b61019e6060830187610135565b6101ab6080830186610153565b6101b860a0830185610153565b6101c560c0830184610144565b98975050505050505050565b60006101dc826101f9565b9050919050565b60008115159050919050565b6000819050919050565b600073ffffffffffffffffffffffffffffffffffffffff82169050919050565b6000610224826101f9565b905091905056fea265627a7a723058203fdcca9768d7688d71133ae38eb71d1c5f0725f1df3dec809012e511cf28ca996c6578706572696d656e74616cf50037",
  "source": "pragma solidity >=0.4.17;\npragma experimental ABIEncoderV2;\n\ncontract Address{\n    struct userBlock{\n        bytes32 name;\n        bytes32 userName;\n        bytes32 userType;\n        address blockAddress;\n        bytes32 password;\n        bytes32 mobile;\n        bool flag;\n    }\n\n    mapping (address => userBlock) public userDb;\n\n    // constructor() public{\n        \n    // }\n\n    function checkUserExists(address blockAddress) private view returns(bool){\n        if(userDb[blockAddress].flag == true) return true;\n        return false;\n    }\n\n    function getEncryptedPassword(bytes32 password) private pure returns (bytes32 result){\n        return sha256(abi.encodePacked(password));\n    }\n\n    function setUser(bytes32 name, bytes32 userName,bytes32 userType, bytes32 password,bytes32 mobile) private{\n        address userAddress = address(this);\n        if(!checkUserExists(userAddress)){\n            bytes32 localName = name;\n            bytes32 localUserName = userName;\n            bytes32 localUserType = userType;\n            bytes32 localPassword = getEncryptedPassword(password);\n            bytes32 localMobile = mobile;\n            userBlock memory user = userBlock(localName,localUserName,localUserType,userAddress,localPassword,localMobile,true);\n            userDb[userAddress] = user;\n        }\n    }\n}",
  "sourcePath": "/home/prerna/Documents/Projects/InstaSure/contracts/Address.sol",
  "compiler": {
    "name": "solc",
    "version": "0.5.0+commit.1d4f565a.Emscripten.clang"
  },
  "schemaVersion": "3.0.1",
  "updatedAt": "2022-02-06T09:04:41.365Z",
  "devdoc": {
    "methods": {}
  },
  "userdoc": {
    "methods": {}
  }
}