{
  "contractName": "Address",
  "abi": [
    {
      "inputs": [],
      "payable": false,
      "stateMutability": "nonpayable",
      "type": "constructor"
    },
    {
      "constant": true,
      "inputs": [],
      "name": "userAddress",
      "outputs": [
        {
          "internalType": "address",
          "name": "",
          "type": "address"
        }
      ],
      "payable": false,
      "stateMutability": "view",
      "type": "function"
    },
    {
      "constant": true,
      "inputs": [
        {
          "internalType": "bytes32",
          "name": "mobile",
          "type": "bytes32"
        }
      ],
      "name": "checkUserExists",
      "outputs": [
        {
          "internalType": "bool",
          "name": "",
          "type": "bool"
        }
      ],
      "payable": false,
      "stateMutability": "view",
      "type": "function"
    },
    {
      "constant": true,
      "inputs": [
        {
          "internalType": "bytes32",
          "name": "password",
          "type": "bytes32"
        }
      ],
      "name": "getEncryptedPassword",
      "outputs": [
        {
          "internalType": "bytes32",
          "name": "result",
          "type": "bytes32"
        }
      ],
      "payable": false,
      "stateMutability": "pure",
      "type": "function"
    },
    {
      "constant": false,
      "inputs": [
        {
          "internalType": "bytes32",
          "name": "name",
          "type": "bytes32"
        },
        {
          "internalType": "bytes32",
          "name": "userName",
          "type": "bytes32"
        },
        {
          "internalType": "bytes32",
          "name": "userType",
          "type": "bytes32"
        },
        {
          "internalType": "bytes32",
          "name": "password",
          "type": "bytes32"
        },
        {
          "internalType": "bytes32",
          "name": "mobile",
          "type": "bytes32"
        }
      ],
      "name": "setUser",
      "outputs": [],
      "payable": false,
      "stateMutability": "nonpayable",
      "type": "function"
    }
  ],
  "bytecode": "0x608060405234801561001057600080fd5b50306000806101000a81548173ffffffffffffffffffffffffffffffffffffffff021916908373ffffffffffffffffffffffffffffffffffffffff1602179055506104a5806100606000396000f3fe608060405234801561001057600080fd5b506004361061004c5760003560e01c8063286522541461005157806377f1b8bc14610093578063c2536eaa146100d9578063e4128fb31461012f575b600080fd5b61007d6004803603602081101561006757600080fd5b8101908080359060200190929190505050610179565b6040518082815260200191505060405180910390f35b6100bf600480360360208110156100a957600080fd5b810190808035906020019092919050505061023f565b604051808215151515815260200191505060405180910390f35b61012d600480360360a08110156100ef57600080fd5b810190808035906020019092919080359060200190929190803590602001909291908035906020019092919080359060200190929190505050610284565b005b6101376103e7565b604051808273ffffffffffffffffffffffffffffffffffffffff1673ffffffffffffffffffffffffffffffffffffffff16815260200191505060405180910390f35b6000600282604051602001808281526020019150506040516020818303038152906040526040518082805190602001908083835b602083106101d057805182526020820191506020810190506020830392506101ad565b6001836020036101000a038019825116818451168082178552505050505050905001915050602060405180830381855afa158015610212573d6000803e3d6000fd5b5050506040513d602081101561022757600080fd5b81019080805190602001909291905050509050919050565b6000600115156001600084815260200190815260200160002060060160009054906101000a900460ff161515141561027a576001905061027f565b600090505b919050565b61028d8161023f565b6103e05760008590506000859050600085905060006102ab86610179565b905060008590506102ba61040c565b6040518060e001604052808781526020018681526020018581526020016000809054906101000a900473ffffffffffffffffffffffffffffffffffffffff1673ffffffffffffffffffffffffffffffffffffffff168152602001848152602001838152602001600115158152509050806001600089815260200190815260200160002060008201518160000155602082015181600101556040820151816002015560608201518160030160006101000a81548173ffffffffffffffffffffffffffffffffffffffff021916908373ffffffffffffffffffffffffffffffffffffffff1602179055506080820151816004015560a0820151816005015560c08201518160060160006101000a81548160ff0219169083151502179055509050505050505050505b5050505050565b6000809054906101000a900473ffffffffffffffffffffffffffffffffffffffff1681565b6040518060e00160405280600080191681526020016000801916815260200160008019168152602001600073ffffffffffffffffffffffffffffffffffffffff1681526020016000801916815260200160008019168152602001600015158152509056fea265627a7a72315820ee150d0e9c8293ef61cb228413f4b67e303053c07084fd3ab6cce958214ab55464736f6c63430005100032",
  "source": "pragma solidity >=0.4.17;\r\n\r\ncontract Address{\r\n    address public userAddress;\r\n    struct userBlock{\r\n        bytes32 name;\r\n        bytes32 userName;\r\n        bytes32 userType;\r\n        address blockAddress;\r\n        bytes32 password;\r\n        bytes32 mobile;\r\n        bool flag;\r\n    }\r\n\r\n    mapping (bytes32 => userBlock) userDb;\r\n\r\n    constructor() public{\r\n        userAddress = address(this);\r\n    }\r\n\r\n    function checkUserExists(bytes32 mobile) public view returns(bool){\r\n        if(userDb[mobile].flag == true) return true;\r\n        return false;\r\n    }\r\n\r\n    function getEncryptedPassword(bytes32 password) public pure returns (bytes32 result){\r\n        return sha256(abi.encodePacked(password));\r\n    }\r\n\r\n    function setUser(bytes32 name, bytes32 userName,bytes32 userType, bytes32 password,bytes32 mobile) public{\r\n        if(!checkUserExists(mobile)){\r\n            bytes32 localName = name;\r\n            bytes32 localUserName = userName;\r\n            bytes32 localUserType = userType;\r\n            bytes32 localPassword = getEncryptedPassword(password);\r\n            bytes32 localMobile = mobile;\r\n            userBlock memory user = userBlock(localName,localUserName,localUserType,userAddress,localPassword,localMobile,true);\r\n            userDb[mobile] = user;\r\n        }\r\n    }\r\n}",
  "sourcePath": "C:\\college\\Github_improvement\\instasure\\contracts\\Address.sol",
  "compiler": {
    "name": "solc",
    "version": "0.5.16+commit.9c3226ce.Emscripten.clang"
  },
  "schemaVersion": "3.4.4",
  "updatedAt": "2022-02-05T17:24:01.788Z",
  "networkType": "ethereum",
  "devdoc": {
    "methods": {}
  },
  "userdoc": {
    "methods": {}
  }
}