{
  "contractName": "SimpleStorage",
  "abi": [
    {
      "constant": false,
      "inputs": [
        {
          "name": "x",
          "type": "uint256"
        }
      ],
      "name": "set",
      "outputs": [],
      "payable": false,
      "stateMutability": "nonpayable",
      "type": "function"
    },
    {
      "constant": true,
      "inputs": [],
      "name": "get",
      "outputs": [
        {
          "name": "",
          "type": "uint256"
        }
      ],
      "payable": false,
      "stateMutability": "view",
      "type": "function"
    }
  ],
  "bytecode": "0x608060405234801561001057600080fd5b5060ec8061001f6000396000f3fe6080604052600436106049576000357c0100000000000000000000000000000000000000000000000000000000900463ffffffff16806360fe47b114604e5780636d4ce63c146085575b600080fd5b348015605957600080fd5b50608360048036036020811015606e57600080fd5b810190808035906020019092919050505060ad565b005b348015609057600080fd5b50609760b7565b6040518082815260200191505060405180910390f35b8060008190555050565b6000805490509056fea165627a7a723058208cc200915bbd6c4ec1d627984aead87672dc4d8c5b5b46332d1026d1b137f1ea0029",
  "source": "// SPDX-License-Identifier: MIT\npragma solidity >=0.4.17 <8.10.0;\n\ncontract SimpleStorage {\n  uint storedData;\n\n  function set(uint x) public {\n    storedData = x;\n  }\n\n  function get() public view returns (uint) {\n    return storedData;\n  }\n}\n",
  "sourcePath": "/home/prerna/Documents/Projects/InstaSure/contracts/SimpleStorage.sol",
  "compiler": {
    "name": "solc",
    "version": "0.5.0+commit.1d4f565a.Emscripten.clang"
  },
  "schemaVersion": "3.0.1",
  "updatedAt": "2022-02-06T09:04:41.366Z",
  "devdoc": {
    "methods": {}
  },
  "userdoc": {
    "methods": {}
  }
}